{
  "_format": "hh-sol-artifact-1",
  "contractName": "Timelock",
  "sourceName": "contracts/Timelock.sol",
  "abi": [
    {
      "inputs": [
        {
          "internalType": "uint256",
          "name": "minDelay",
          "type": "uint256"
        },
        {
          "internalType": "address[]",
          "name": "proposers",
          "type": "address[]"
        },
        {
          "internalType": "address[]",
          "name": "executors",
          "type": "address[]"
        }
      ],
      "stateMutability": "nonpayable",
      "type": "constructor"
    },
    {
      "anonymous": false,
      "inputs": [
        {
          "indexed": true,
          "internalType": "bytes32",
          "name": "id",
          "type": "bytes32"
        },
        {
          "indexed": true,
          "internalType": "uint256",
          "name": "index",
          "type": "uint256"
        },
        {
          "indexed": false,
          "internalType": "address",
          "name": "target",
          "type": "address"
        },
        {
          "indexed": false,
          "internalType": "uint256",
          "name": "value",
          "type": "uint256"
        },
        {
          "indexed": false,
          "internalType": "bytes",
          "name": "data",
          "type": "bytes"
        }
      ],
      "name": "CallExecuted",
      "type": "event"
    },
    {
      "anonymous": false,
      "inputs": [
        {
          "indexed": true,
          "internalType": "bytes32",
          "name": "id",
          "type": "bytes32"
        },
        {
          "indexed": true,
          "internalType": "uint256",
          "name": "index",
          "type": "uint256"
        },
        {
          "indexed": false,
          "internalType": "address",
          "name": "target",
          "type": "address"
        },
        {
          "indexed": false,
          "internalType": "uint256",
          "name": "value",
          "type": "uint256"
        },
        {
          "indexed": false,
          "internalType": "bytes",
          "name": "data",
          "type": "bytes"
        },
        {
          "indexed": false,
          "internalType": "bytes32",
          "name": "predecessor",
          "type": "bytes32"
        },
        {
          "indexed": false,
          "internalType": "uint256",
          "name": "delay",
          "type": "uint256"
        }
      ],
      "name": "CallScheduled",
      "type": "event"
    },
    {
      "anonymous": false,
      "inputs": [
        {
          "indexed": true,
          "internalType": "bytes32",
          "name": "id",
          "type": "bytes32"
        }
      ],
      "name": "Cancelled",
      "type": "event"
    },
    {
      "anonymous": false,
      "inputs": [
        {
          "indexed": false,
          "internalType": "uint256",
          "name": "oldDuration",
          "type": "uint256"
        },
        {
          "indexed": false,
          "internalType": "uint256",
          "name": "newDuration",
          "type": "uint256"
        }
      ],
      "name": "MinDelayChange",
      "type": "event"
    },
    {
      "anonymous": false,
      "inputs": [
        {
          "indexed": true,
          "internalType": "bytes32",
          "name": "role",
          "type": "bytes32"
        },
        {
          "indexed": true,
          "internalType": "bytes32",
          "name": "previousAdminRole",
          "type": "bytes32"
        },
        {
          "indexed": true,
          "internalType": "bytes32",
          "name": "newAdminRole",
          "type": "bytes32"
        }
      ],
      "name": "RoleAdminChanged",
      "type": "event"
    },
    {
      "anonymous": false,
      "inputs": [
        {
          "indexed": true,
          "internalType": "bytes32",
          "name": "role",
          "type": "bytes32"
        },
        {
          "indexed": true,
          "internalType": "address",
          "name": "account",
          "type": "address"
        },
        {
          "indexed": true,
          "internalType": "address",
          "name": "sender",
          "type": "address"
        }
      ],
      "name": "RoleGranted",
      "type": "event"
    },
    {
      "anonymous": false,
      "inputs": [
        {
          "indexed": true,
          "internalType": "bytes32",
          "name": "role",
          "type": "bytes32"
        },
        {
          "indexed": true,
          "internalType": "address",
          "name": "account",
          "type": "address"
        },
        {
          "indexed": true,
          "internalType": "address",
          "name": "sender",
          "type": "address"
        }
      ],
      "name": "RoleRevoked",
      "type": "event"
    },
    {
      "inputs": [],
      "name": "DEFAULT_ADMIN_ROLE",
      "outputs": [
        {
          "internalType": "bytes32",
          "name": "",
          "type": "bytes32"
        }
      ],
      "stateMutability": "view",
      "type": "function"
    },
    {
      "inputs": [],
      "name": "EXECUTOR_ROLE",
      "outputs": [
        {
          "internalType": "bytes32",
          "name": "",
          "type": "bytes32"
        }
      ],
      "stateMutability": "view",
      "type": "function"
    },
    {
      "inputs": [],
      "name": "PROPOSER_ROLE",
      "outputs": [
        {
          "internalType": "bytes32",
          "name": "",
          "type": "bytes32"
        }
      ],
      "stateMutability": "view",
      "type": "function"
    },
    {
      "inputs": [],
      "name": "TIMELOCK_ADMIN_ROLE",
      "outputs": [
        {
          "internalType": "bytes32",
          "name": "",
          "type": "bytes32"
        }
      ],
      "stateMutability": "view",
      "type": "function"
    },
    {
      "inputs": [
        {
          "internalType": "bytes32",
          "name": "id",
          "type": "bytes32"
        }
      ],
      "name": "cancel",
      "outputs": [],
      "stateMutability": "nonpayable",
      "type": "function"
    },
    {
      "inputs": [
        {
          "internalType": "address",
          "name": "target",
          "type": "address"
        },
        {
          "internalType": "uint256",
          "name": "value",
          "type": "uint256"
        },
        {
          "internalType": "bytes",
          "name": "data",
          "type": "bytes"
        },
        {
          "internalType": "bytes32",
          "name": "predecessor",
          "type": "bytes32"
        },
        {
          "internalType": "bytes32",
          "name": "salt",
          "type": "bytes32"
        }
      ],
      "name": "execute",
      "outputs": [],
      "stateMutability": "payable",
      "type": "function"
    },
    {
      "inputs": [
        {
          "internalType": "address[]",
          "name": "targets",
          "type": "address[]"
        },
        {
          "internalType": "uint256[]",
          "name": "values",
          "type": "uint256[]"
        },
        {
          "internalType": "bytes[]",
          "name": "datas",
          "type": "bytes[]"
        },
        {
          "internalType": "bytes32",
          "name": "predecessor",
          "type": "bytes32"
        },
        {
          "internalType": "bytes32",
          "name": "salt",
          "type": "bytes32"
        }
      ],
      "name": "executeBatch",
      "outputs": [],
      "stateMutability": "payable",
      "type": "function"
    },
    {
      "inputs": [],
      "name": "getMinDelay",
      "outputs": [
        {
          "internalType": "uint256",
          "name": "duration",
          "type": "uint256"
        }
      ],
      "stateMutability": "view",
      "type": "function"
    },
    {
      "inputs": [
        {
          "internalType": "bytes32",
          "name": "role",
          "type": "bytes32"
        }
      ],
      "name": "getRoleAdmin",
      "outputs": [
        {
          "internalType": "bytes32",
          "name": "",
          "type": "bytes32"
        }
      ],
      "stateMutability": "view",
      "type": "function"
    },
    {
      "inputs": [
        {
          "internalType": "bytes32",
          "name": "role",
          "type": "bytes32"
        },
        {
          "internalType": "uint256",
          "name": "index",
          "type": "uint256"
        }
      ],
      "name": "getRoleMember",
      "outputs": [
        {
          "internalType": "address",
          "name": "",
          "type": "address"
        }
      ],
      "stateMutability": "view",
      "type": "function"
    },
    {
      "inputs": [
        {
          "internalType": "bytes32",
          "name": "role",
          "type": "bytes32"
        }
      ],
      "name": "getRoleMemberCount",
      "outputs": [
        {
          "internalType": "uint256",
          "name": "",
          "type": "uint256"
        }
      ],
      "stateMutability": "view",
      "type": "function"
    },
    {
      "inputs": [
        {
          "internalType": "bytes32",
          "name": "id",
          "type": "bytes32"
        }
      ],
      "name": "getTimestamp",
      "outputs": [
        {
          "internalType": "uint256",
          "name": "timestamp",
          "type": "uint256"
        }
      ],
      "stateMutability": "view",
      "type": "function"
    },
    {
      "inputs": [
        {
          "internalType": "bytes32",
          "name": "role",
          "type": "bytes32"
        },
        {
          "internalType": "address",
          "name": "account",
          "type": "address"
        }
      ],
      "name": "grantRole",
      "outputs": [],
      "stateMutability": "nonpayable",
      "type": "function"
    },
    {
      "inputs": [
        {
          "internalType": "bytes32",
          "name": "role",
          "type": "bytes32"
        },
        {
          "internalType": "address",
          "name": "account",
          "type": "address"
        }
      ],
      "name": "hasRole",
      "outputs": [
        {
          "internalType": "bool",
          "name": "",
          "type": "bool"
        }
      ],
      "stateMutability": "view",
      "type": "function"
    },
    {
      "inputs": [
        {
          "internalType": "address",
          "name": "target",
          "type": "address"
        },
        {
          "internalType": "uint256",
          "name": "value",
          "type": "uint256"
        },
        {
          "internalType": "bytes",
          "name": "data",
          "type": "bytes"
        },
        {
          "internalType": "bytes32",
          "name": "predecessor",
          "type": "bytes32"
        },
        {
          "internalType": "bytes32",
          "name": "salt",
          "type": "bytes32"
        }
      ],
      "name": "hashOperation",
      "outputs": [
        {
          "internalType": "bytes32",
          "name": "hash",
          "type": "bytes32"
        }
      ],
      "stateMutability": "pure",
      "type": "function"
    },
    {
      "inputs": [
        {
          "internalType": "address[]",
          "name": "targets",
          "type": "address[]"
        },
        {
          "internalType": "uint256[]",
          "name": "values",
          "type": "uint256[]"
        },
        {
          "internalType": "bytes[]",
          "name": "datas",
          "type": "bytes[]"
        },
        {
          "internalType": "bytes32",
          "name": "predecessor",
          "type": "bytes32"
        },
        {
          "internalType": "bytes32",
          "name": "salt",
          "type": "bytes32"
        }
      ],
      "name": "hashOperationBatch",
      "outputs": [
        {
          "internalType": "bytes32",
          "name": "hash",
          "type": "bytes32"
        }
      ],
      "stateMutability": "pure",
      "type": "function"
    },
    {
      "inputs": [
        {
          "internalType": "bytes32",
          "name": "id",
          "type": "bytes32"
        }
      ],
      "name": "isOperation",
      "outputs": [
        {
          "internalType": "bool",
          "name": "pending",
          "type": "bool"
        }
      ],
      "stateMutability": "view",
      "type": "function"
    },
    {
      "inputs": [
        {
          "internalType": "bytes32",
          "name": "id",
          "type": "bytes32"
        }
      ],
      "name": "isOperationDone",
      "outputs": [
        {
          "internalType": "bool",
          "name": "done",
          "type": "bool"
        }
      ],
      "stateMutability": "view",
      "type": "function"
    },
    {
      "inputs": [
        {
          "internalType": "bytes32",
          "name": "id",
          "type": "bytes32"
        }
      ],
      "name": "isOperationPending",
      "outputs": [
        {
          "internalType": "bool",
          "name": "pending",
          "type": "bool"
        }
      ],
      "stateMutability": "view",
      "type": "function"
    },
    {
      "inputs": [
        {
          "internalType": "bytes32",
          "name": "id",
          "type": "bytes32"
        }
      ],
      "name": "isOperationReady",
      "outputs": [
        {
          "internalType": "bool",
          "name": "ready",
          "type": "bool"
        }
      ],
      "stateMutability": "view",
      "type": "function"
    },
    {
      "inputs": [
        {
          "internalType": "bytes32",
          "name": "role",
          "type": "bytes32"
        },
        {
          "internalType": "address",
          "name": "account",
          "type": "address"
        }
      ],
      "name": "renounceRole",
      "outputs": [],
      "stateMutability": "nonpayable",
      "type": "function"
    },
    {
      "inputs": [
        {
          "internalType": "bytes32",
          "name": "role",
          "type": "bytes32"
        },
        {
          "internalType": "address",
          "name": "account",
          "type": "address"
        }
      ],
      "name": "revokeRole",
      "outputs": [],
      "stateMutability": "nonpayable",
      "type": "function"
    },
    {
      "inputs": [
        {
          "internalType": "address",
          "name": "target",
          "type": "address"
        },
        {
          "internalType": "uint256",
          "name": "value",
          "type": "uint256"
        },
        {
          "internalType": "bytes",
          "name": "data",
          "type": "bytes"
        },
        {
          "internalType": "bytes32",
          "name": "predecessor",
          "type": "bytes32"
        },
        {
          "internalType": "bytes32",
          "name": "salt",
          "type": "bytes32"
        },
        {
          "internalType": "uint256",
          "name": "delay",
          "type": "uint256"
        }
      ],
      "name": "schedule",
      "outputs": [],
      "stateMutability": "nonpayable",
      "type": "function"
    },
    {
      "inputs": [
        {
          "internalType": "address[]",
          "name": "targets",
          "type": "address[]"
        },
        {
          "internalType": "uint256[]",
          "name": "values",
          "type": "uint256[]"
        },
        {
          "internalType": "bytes[]",
          "name": "datas",
          "type": "bytes[]"
        },
        {
          "internalType": "bytes32",
          "name": "predecessor",
          "type": "bytes32"
        },
        {
          "internalType": "bytes32",
          "name": "salt",
          "type": "bytes32"
        },
        {
          "internalType": "uint256",
          "name": "delay",
          "type": "uint256"
        }
      ],
      "name": "scheduleBatch",
      "outputs": [],
      "stateMutability": "nonpayable",
      "type": "function"
    },
    {
      "inputs": [
        {
          "internalType": "uint256",
          "name": "newDelay",
          "type": "uint256"
        }
      ],
      "name": "updateDelay",
      "outputs": [],
      "stateMutability": "nonpayable",
      "type": "function"
    },
    {
      "stateMutability": "payable",
      "type": "receive"
    }
  ],
  "bytecode": "0x60806040523480156200001157600080fd5b50604051620023b3380380620023b38339810160408190526200003491620003d7565b828282620000526000805160206200235383398151915280620001b7565b6200007c6000805160206200237383398151915260008051602062002353833981519152620001b7565b620000a66000805160206200239383398151915260008051602062002353833981519152620001b7565b620000ca60008051602062002353833981519152620000c462000209565b6200020d565b620000e560008051602062002353833981519152306200020d565b60005b8251811015620001305762000127600080516020620023738339815191528483815181106200011357fe5b60200260200101516200020d60201b60201c565b600101620000e8565b5060005b815181101562000168576200015f600080516020620023938339815191528383815181106200011357fe5b60010162000134565b5060028390556040517f11c24f4ead16507c69ac467fbd5e4eed5fb5c699626d2cc6d66421df253886d590620001a390600090869062000448565b60405180910390a150505050505062000456565b600082815260208190526040808220600201549051839285917fbd79b86ffe0ab8e8776151514217cd7cacd52c909f66475c3af44e129f0b00ff9190a460009182526020829052604090912060020155565b3390565b6200021982826200021d565b5050565b6000828152602081815260409091206200024291839062000e3e62000296821b17901c565b1562000219576200025262000209565b6001600160a01b0316816001600160a01b0316837f2f8788117e7eff1d82e926ec794901d17c78024a50270940304540a733656f0d60405160405180910390a45050565b6000620002ad836001600160a01b038416620002b6565b90505b92915050565b6000620002c4838362000305565b620002fc57508154600181810184556000848152602080822090930184905584548482528286019093526040902091909155620002b0565b506000620002b0565b60009081526001919091016020526040902054151590565b80516001600160a01b03811681146200033557600080fd5b919050565b600082601f8301126200034b578081fd5b81516001600160401b03808211156200036057fe5b6020808302604051828282010181811085821117156200037c57fe5b6040528481529450818501925085820181870183018810156200039e57600080fd5b600091505b84821015620003cc57620003b7816200031d565b845292820192600191909101908201620003a3565b505050505092915050565b600080600060608486031215620003ec578283fd5b835160208501519093506001600160401b03808211156200040b578384fd5b62000419878388016200033a565b935060408601519150808211156200042f578283fd5b506200043e868287016200033a565b9150509250925092565b918252602082015260400190565b611eed80620004666000396000f3fe60806040526004361061019a5760003560e01c80638065657f116100e1578063b1c5f4271161008a578063d45c443511610064578063d45c44351461043f578063d547741f1461045f578063e38335e51461047f578063f27a0c9214610492576101a1565b8063b1c5f427146103df578063c4d252f5146103ff578063ca15c8731461041f576101a1565b80639010d07c116100bb5780639010d07c1461037d57806391d14854146103aa578063a217fddf146103ca576101a1565b80638065657f146103285780638f2a0bb0146103485780638f61f4f514610368576101a1565b80632ab0f5291161014357806336568abe1161011d57806336568abe146102c8578063584b153e146102e857806364d6235314610308576101a1565b80632ab0f529146102685780632f2ff15d1461028857806331d50750146102a8576101a1565b8063134008d311610174578063134008d31461020857806313bc9f201461021b578063248a9ca314610248576101a1565b806301d5062a146101a657806307bd0265146101c85780630d3cf6fc146101f3576101a1565b366101a157005b600080fd5b3480156101b257600080fd5b506101c66101c136600461159b565b6104a7565b005b3480156101d457600080fd5b506101dd61058f565b6040516101ea9190611a48565b60405180910390f35b3480156101ff57600080fd5b506101dd6105b3565b6101c6610216366004611531565b6105d7565b34801561022757600080fd5b5061023b610236366004611761565b610689565b6040516101ea9190611a3d565b34801561025457600080fd5b506101dd610263366004611761565b6106b0565b34801561027457600080fd5b5061023b610283366004611761565b6106c5565b34801561029457600080fd5b506101c66102a3366004611779565b6106d9565b3480156102b457600080fd5b5061023b6102c3366004611761565b61075a565b3480156102d457600080fd5b506101c66102e3366004611779565b61076d565b3480156102f457600080fd5b5061023b610303366004611761565b610802565b34801561031457600080fd5b506101c6610323366004611761565b61080f565b34801561033457600080fd5b506101dd610343366004611531565b610888565b34801561035457600080fd5b506101c66103633660046116b3565b6108c7565b34801561037457600080fd5b506101dd610a7d565b34801561038957600080fd5b5061039d6103983660046117a4565b610aa1565b6040516101ea91906118c6565b3480156103b657600080fd5b5061023b6103c5366004611779565b610ac2565b3480156103d657600080fd5b506101dd610ada565b3480156103eb57600080fd5b506101dd6103fa36600461160e565b610adf565b34801561040b57600080fd5b506101c661041a366004611761565b610b24565b34801561042b57600080fd5b506101dd61043a366004611761565b610c13565b34801561044b57600080fd5b506101dd61045a366004611761565b610c2a565b34801561046b57600080fd5b506101c661047a366004611779565b610c3c565b6101c661048d36600461160e565b610caf565b34801561049e57600080fd5b506101dd610e38565b7fb09aa5aeb3702cfd50b6b62bc4532604938f21248a27a1d5ca736082b6819cc16104d4816103c5610e60565b806104e557506104e5816000610ac2565b610524576040517f08c379a000000000000000000000000000000000000000000000000000000000815260040161051b90611b0b565b60405180910390fd5b6000610534898989898989610888565b90506105408184610e64565b6000817f4cf4410cc57040e44862ef0f45f3dd5a5e02db8eb8add648d4b0e236f1d07dca8b8b8b8b8b8a60405161057c96959493929190611927565b60405180910390a3505050505050505050565b7fd8aa0f3194971a2a116679f7c2090f6939c8d4e01a2a8d7e41d55e5351469e6381565b7f5f58e3a2316349923ce3780f8d587db2d72378aed66a8261c916544fa6846ca581565b7fd8aa0f3194971a2a116679f7c2090f6939c8d4e01a2a8d7e41d55e5351469e63610604816103c5610e60565b806106155750610615816000610ac2565b61064b576040517f08c379a000000000000000000000000000000000000000000000000000000000815260040161051b90611b0b565b600061065b888888888888610888565b90506106678185610f05565b6106768160008a8a8a8a610f8b565b61067f8161107a565b5050505050505050565b60008061069583610c2a565b90506001811180156106a75750428111155b9150505b919050565b60009081526020819052604090206002015490565b600060016106d283610c2a565b1492915050565b6000828152602081905260409020600201546106f7906103c5610e60565b61074c576040517f08c379a000000000000000000000000000000000000000000000000000000000815260040180806020018281038252602f815260200180611e2a602f913960400191505060405180910390fd5b61075682826110cd565b5050565b60008061076683610c2a565b1192915050565b610775610e60565b73ffffffffffffffffffffffffffffffffffffffff168173ffffffffffffffffffffffffffffffffffffffff16146107f8576040517f08c379a000000000000000000000000000000000000000000000000000000000815260040180806020018281038252602f815260200180611e89602f913960400191505060405180910390fd5b6107568282611150565b6000600161076683610c2a565b333014610848576040517f08c379a000000000000000000000000000000000000000000000000000000000815260040161051b90611cdc565b7f11c24f4ead16507c69ac467fbd5e4eed5fb5c699626d2cc6d66421df253886d56002548260405161087b929190611d96565b60405180910390a1600255565b60008686868686866040516020016108a596959493929190611927565b6040516020818303038152906040528051906020012090509695505050505050565b7fb09aa5aeb3702cfd50b6b62bc4532604938f21248a27a1d5ca736082b6819cc16108f4816103c5610e60565b806109055750610905816000610ac2565b61093b576040517f08c379a000000000000000000000000000000000000000000000000000000000815260040161051b90611b0b565b888714610974576040517f08c379a000000000000000000000000000000000000000000000000000000000815260040161051b90611aae565b8885146109ad576040517f08c379a000000000000000000000000000000000000000000000000000000000815260040161051b90611aae565b60006109bf8b8b8b8b8b8b8b8b610adf565b90506109cb8184610e64565b60005b8a811015610a6f5780827f4cf4410cc57040e44862ef0f45f3dd5a5e02db8eb8add648d4b0e236f1d07dca8e8e85818110610a0557fe5b9050602002016020810190610a1a9190611517565b8d8d86818110610a2657fe5b905060200201358c8c87818110610a3957fe5b9050602002810190610a4b9190611da4565b8c8b604051610a5f96959493929190611927565b60405180910390a36001016109ce565b505050505050505050505050565b7fb09aa5aeb3702cfd50b6b62bc4532604938f21248a27a1d5ca736082b6819cc181565b6000828152602081905260408120610ab990836111d3565b90505b92915050565b6000828152602081905260408120610ab990836111df565b600081565b60008888888888888888604051602001610b00989796959493929190611972565b60405160208183030381529060405280519060200120905098975050505050505050565b7fb09aa5aeb3702cfd50b6b62bc4532604938f21248a27a1d5ca736082b6819cc1610b51816103c5610e60565b80610b625750610b62816000610ac2565b610b98576040517f08c379a000000000000000000000000000000000000000000000000000000000815260040161051b90611b0b565b610ba182610802565b610bd7576040517f08c379a000000000000000000000000000000000000000000000000000000000815260040161051b90611c7f565b6000828152600160205260408082208290555183917fbaa1eb22f2a492ba1a5fea61b8df4d27c6c8b5f3971e63bb58fa14ff72eedb7091a25050565b6000818152602081905260408120610abc90611201565b60009081526001602052604090205490565b600082815260208190526040902060020154610c5a906103c5610e60565b6107f8576040517f08c379a0000000000000000000000000000000000000000000000000000000008152600401808060200182810382526030815260200180611e596030913960400191505060405180910390fd5b7fd8aa0f3194971a2a116679f7c2090f6939c8d4e01a2a8d7e41d55e5351469e63610cdc816103c5610e60565b80610ced5750610ced816000610ac2565b610d23576040517f08c379a000000000000000000000000000000000000000000000000000000000815260040161051b90611b0b565b878614610d5c576040517f08c379a000000000000000000000000000000000000000000000000000000000815260040161051b90611aae565b878414610d95576040517f08c379a000000000000000000000000000000000000000000000000000000000815260040161051b90611aae565b6000610da78a8a8a8a8a8a8a8a610adf565b9050610db38185610f05565b60005b89811015610e2257610e1a82828d8d85818110610dcf57fe5b9050602002016020810190610de49190611517565b8c8c86818110610df057fe5b905060200201358b8b87818110610e0357fe5b9050602002810190610e159190611da4565b610f8b565b600101610db6565b50610e2c8161107a565b50505050505050505050565b60025490565b6000610ab98373ffffffffffffffffffffffffffffffffffffffff841661120c565b3390565b610e6d8261075a565b15610ea4576040517f08c379a000000000000000000000000000000000000000000000000000000000815260040161051b90611bc5565b610eac610e38565b811015610ee5576040517f08c379a000000000000000000000000000000000000000000000000000000000815260040161051b90611b68565b610eef4282611256565b6000928352600160205260409092209190915550565b610f0e82610689565b610f44576040517f08c379a000000000000000000000000000000000000000000000000000000000815260040161051b90611c22565b801580610f555750610f55816106c5565b610756576040517f08c379a000000000000000000000000000000000000000000000000000000000815260040161051b90611a51565b60008473ffffffffffffffffffffffffffffffffffffffff16848484604051610fb59291906118b6565b60006040518083038185875af1925050503d8060008114610ff2576040519150601f19603f3d011682016040523d82523d6000602084013e610ff7565b606091505b5050905080611032576040517f08c379a000000000000000000000000000000000000000000000000000000000815260040161051b90611d39565b85877fc2617efa69bab66782fa219543714338489c4e9e178271560a91b82c3f612b588787878760405161106994939291906118e7565b60405180910390a350505050505050565b61108381610689565b6110b9576040517f08c379a000000000000000000000000000000000000000000000000000000000815260040161051b90611c22565b600090815260016020819052604090912055565b60008281526020819052604090206110e59082610e3e565b15610756576110f2610e60565b73ffffffffffffffffffffffffffffffffffffffff168173ffffffffffffffffffffffffffffffffffffffff16837f2f8788117e7eff1d82e926ec794901d17c78024a50270940304540a733656f0d60405160405180910390a45050565b600082815260208190526040902061116890826112ca565b1561075657611175610e60565b73ffffffffffffffffffffffffffffffffffffffff168173ffffffffffffffffffffffffffffffffffffffff16837ff6391f5c32d9c69d2a47ea670b442974b53935d1edc7fd64eb21e047a839171b60405160405180910390a45050565b6000610ab983836112ec565b6000610ab98373ffffffffffffffffffffffffffffffffffffffff841661136a565b6000610abc82611382565b6000611218838361136a565b61124e57508154600181810184556000848152602080822090930184905584548482528286019093526040902091909155610abc565b506000610abc565b600082820183811015610ab957604080517f08c379a000000000000000000000000000000000000000000000000000000000815260206004820152601b60248201527f536166654d6174683a206164646974696f6e206f766572666c6f770000000000604482015290519081900360640190fd5b6000610ab98373ffffffffffffffffffffffffffffffffffffffff8416611386565b81546000908210611348576040517f08c379a0000000000000000000000000000000000000000000000000000000008152600401808060200182810382526022815260200180611e086022913960400191505060405180910390fd5b82600001828154811061135757fe5b9060005260206000200154905092915050565b60009081526001919091016020526040902054151590565b5490565b600081815260018301602052604081205480156114605783547fffffffffffffffffffffffffffffffffffffffffffffffffffffffffffffffff80830191908101906000908790839081106113d757fe5b90600052602060002001549050808760000184815481106113f457fe5b60009182526020808320909101929092558281526001898101909252604090209084019055865487908061142457fe5b60019003818190600052602060002001600090559055866001016000878152602001908152602001600020600090556001945050505050610abc565b6000915050610abc565b803573ffffffffffffffffffffffffffffffffffffffff811681146106ab57600080fd5b60008083601f84011261149f578182fd5b50813567ffffffffffffffff8111156114b6578182fd5b60208301915083602080830285010111156114d057600080fd5b9250929050565b60008083601f8401126114e8578182fd5b50813567ffffffffffffffff8111156114ff578182fd5b6020830191508360208285010111156114d057600080fd5b600060208284031215611528578081fd5b610ab98261146a565b60008060008060008060a08789031215611549578182fd5b6115528761146a565b955060208701359450604087013567ffffffffffffffff811115611574578283fd5b61158089828a016114d7565b979a9699509760608101359660809091013595509350505050565b600080600080600080600060c0888a0312156115b5578081fd5b6115be8861146a565b965060208801359550604088013567ffffffffffffffff8111156115e0578182fd5b6115ec8a828b016114d7565b989b979a50986060810135976080820135975060a09091013595509350505050565b60008060008060008060008060a0898b031215611629578081fd5b883567ffffffffffffffff80821115611640578283fd5b61164c8c838d0161148e565b909a50985060208b0135915080821115611664578283fd5b6116708c838d0161148e565b909850965060408b0135915080821115611688578283fd5b506116958b828c0161148e565b999c989b509699959896976060870135966080013595509350505050565b600080600080600080600080600060c08a8c0312156116d0578081fd5b893567ffffffffffffffff808211156116e7578283fd5b6116f38d838e0161148e565b909b50995060208c013591508082111561170b578283fd5b6117178d838e0161148e565b909950975060408c013591508082111561172f578283fd5b5061173c8c828d0161148e565b9a9d999c50979a969997986060880135976080810135975060a0013595509350505050565b600060208284031215611772578081fd5b5035919050565b6000806040838503121561178b578182fd5b8235915061179b6020840161146a565b90509250929050565b600080604083850312156117b6578182fd5b50508035926020909101359150565b818352602080840193600091908185020181018584845b8781101561186157828403895281357fffffffffffffffffffffffffffffffffffffffffffffffffffffffffffffffe188360301811261181a578687fd5b8701803567ffffffffffffffff811115611832578788fd5b803603891315611840578788fd5b61184d868289850161186e565b9a87019a95505050908401906001016117dc565b5091979650505050505050565b600082845282826020860137806020848601015260207fffffffffffffffffffffffffffffffffffffffffffffffffffffffffffffffe0601f85011685010190509392505050565b6000828483379101908152919050565b73ffffffffffffffffffffffffffffffffffffffff91909116815260200190565b600073ffffffffffffffffffffffffffffffffffffffff861682528460208301526060604083015261191d60608301848661186e565b9695505050505050565b600073ffffffffffffffffffffffffffffffffffffffff8816825286602083015260a0604083015261195d60a08301868861186e565b60608301949094525060800152949350505050565b60a0808252810188905260008960c08301825b8b8110156119c05773ffffffffffffffffffffffffffffffffffffffff6119ab8461146a565b16825260209283019290910190600101611985565b5083810360208501528881527f07ffffffffffffffffffffffffffffffffffffffffffffffffffffffffffffff8911156119f8578283fd5b602089029150818a60208301370160208181018381528483039091016040850152611a2481888a6117c5565b6060850196909652505050608001529695505050505050565b901515815260200190565b90815260200190565b60208082526026908201527f54696d656c6f636b436f6e74726f6c6c65723a206d697373696e67206465706560408201527f6e64656e63790000000000000000000000000000000000000000000000000000606082015260800190565b60208082526023908201527f54696d656c6f636b436f6e74726f6c6c65723a206c656e677468206d69736d6160408201527f7463680000000000000000000000000000000000000000000000000000000000606082015260800190565b6020808252602e908201527f54696d656c6f636b436f6e74726f6c6c65723a2073656e64657220726571756960408201527f726573207065726d697373696f6e000000000000000000000000000000000000606082015260800190565b60208082526026908201527f54696d656c6f636b436f6e74726f6c6c65723a20696e73756666696369656e7460408201527f2064656c61790000000000000000000000000000000000000000000000000000606082015260800190565b6020808252602f908201527f54696d656c6f636b436f6e74726f6c6c65723a206f7065726174696f6e20616c60408201527f7265616479207363686564756c65640000000000000000000000000000000000606082015260800190565b6020808252602a908201527f54696d656c6f636b436f6e74726f6c6c65723a206f7065726174696f6e20697360408201527f206e6f7420726561647900000000000000000000000000000000000000000000606082015260800190565b60208082526031908201527f54696d656c6f636b436f6e74726f6c6c65723a206f7065726174696f6e20636160408201527f6e6e6f742062652063616e63656c6c6564000000000000000000000000000000606082015260800190565b6020808252602b908201527f54696d656c6f636b436f6e74726f6c6c65723a2063616c6c6572206d7573742060408201527f62652074696d656c6f636b000000000000000000000000000000000000000000606082015260800190565b60208082526033908201527f54696d656c6f636b436f6e74726f6c6c65723a20756e6465726c79696e67207460408201527f72616e73616374696f6e20726576657274656400000000000000000000000000606082015260800190565b918252602082015260400190565b60008083357fffffffffffffffffffffffffffffffffffffffffffffffffffffffffffffffe1843603018112611dd8578283fd5b83018035915067ffffffffffffffff821115611df2578283fd5b6020019150368190038213156114d057600080fdfe456e756d657261626c655365743a20696e646578206f7574206f6620626f756e6473416363657373436f6e74726f6c3a2073656e646572206d75737420626520616e2061646d696e20746f206772616e74416363657373436f6e74726f6c3a2073656e646572206d75737420626520616e2061646d696e20746f207265766f6b65416363657373436f6e74726f6c3a2063616e206f6e6c792072656e6f756e636520726f6c657320666f722073656c66a2646970667358221220377dcc188ed07a36506e3e48f94d70576ffa10e22362de129fa815956cb032ff64736f6c634300070500335f58e3a2316349923ce3780f8d587db2d72378aed66a8261c916544fa6846ca5b09aa5aeb3702cfd50b6b62bc4532604938f21248a27a1d5ca736082b6819cc1d8aa0f3194971a2a116679f7c2090f6939c8d4e01a2a8d7e41d55e5351469e63",
  "linkReferences": {},
  "deployedLinkReferences": {}
}